:100000000C949C000C94C4000C94C4000C94C40088
:100010000C94C4000C94C4000C94C4000C94D9003B
:100020000C94C4000C94C4000C94C4000C94C40040
:100030000C94C4000C94C4000C94C4000C94C40030
:100040000C94C3070C94C4000C94440A0C94C40090
:100050000C94C4000C94C4000C94C4000C94C40010
:100060000C94C4000C94C40007634236B79BD8A715
:100070001A39685618AEBAAB558C1D3CB7CC5763CD
:10008000BD6DEDFD753EF6177231BF000000803F7B
:1000900008000000BE922449123EABAAAA2ABECD97
:1000A000CCCC4C3E00000080BEABAAAAAA3E000009
:1000B0000000BF000000803F000000000008417801
:1000C000D3BB4387D1133D190E3CC3BD4282AD2B38
:1000D0003E68EC8276BED98FE1A93E4C80EFFFBE30
:1000E00001C4FF7F3F0000000000000024272A0019
:1000F0000025282B000023262904040404040404FA
:1001000004020202020202030303030303010204C6
:100110000810204080010204081020010204081089
:100120002000000007000201000003040600000098
:100130000000000000001B0611241FBECFEFD4E01A
:10014000DEBFCDBF15E0A0E0B1E0E6EEFCE102C00D
:1001500005900D92A832B107D9F715E0A8E2B5E0F5
:1001600001C01D92AD3BB107E1F711E0C8E3D1E05A
:1001700004C02297FE010E946D0EC633D107C9F755
:100180000E948E010C94710E0C940000F999FECF20
:1001900072BD61BDF89A80B50895F999FECF1FBA76
:1001A00072BD61BD40BD0FB6F894FA9AF99A0FBEC0
:1001B00008951F920F920FB60F9211242F933F9321
:1001C0004F938F939F932091290530912A05C90160
:1001D000819690932A0580932905895E93407CF04F
:1001E000275C334030932A052093290580912B0505
:1001F00090912C05019690932C0580932B0580916E
:100200002B0590912C058D33910574F0CC9790932C
:100210002C0580932B0580912D0590912E0501963C
:1002200090932E0580932D059F918F914F913F9133
:100230002F910F900FBE0F901F90189508950F9358
:100240001F93FC0100E011E060817181C8010E94F0
:100250009F0AC8011F910F910895AF92BF92CF924C
:10026000DF92EF92FF920F931F935B016C01E0907E
:100270000505F09006050091070510910805C801D5
:10028000B701905820910D0530910E0540910F0552
:10029000509110050E94620B0E94CF0B209109051E
:1002A00030910A0540910B0550910C050E94940D68
:1002B0009B01AC01C601B5010E94620B0E94210D99
:1002C0009B01AC01C801B7010E94620B20E030E83D
:1002D00048E853E40E94FD0A1F910F91FF90EF90B0
:1002E000DF90CF90BF90AF9008950F931F930FE2D0
:1002F00015E040E05BE460E070E0C8010E942F067A
:1003000064EF71E080E090E00E942E0861E071E00F
:10031000C8010E9444061F910F9108950E9466082B
:100320000E947501FDCFEF92FF920F931F93DF9311
:10033000CF9300D000D000D0CDB7DEB720E030E0C2
:1003400048EC52E40E94940D0E94FB0B7B018C014F
:10035000B701882777FD8095982F0E942E0C0E9468
:10036000FB0B882777FD8095982F0E942E0C20E0AC
:1003700030E048EC52E40E94620B0E94FB0BDC016F
:10038000CB014AE050E060E071E00E94C40A8C01B9
:10039000C7016AE070E00E94070E97FF03C09095C6
:1003A00081959F4F4AE050E060E071E00E94C40AEE
:1003B000FE01319626E0DF011D922A95E9F725E03E
:1003C00031E03C832B831A8309839E838D83CF0185
:1003D0000E941F0126960FB6F894DEBF0FBECDBF58
:1003E000CF91DF911F910F91FF90EF900895CF92E1
:1003F000DF92EF92FF920F931F936C017B0164E6F3
:1004000070E080E090E00E942E080FE215E0B70156
:10041000C8010E94440664E670E080E090E00E941B
:100420002E0867E071E0C8010E94440664E670E0AF
:1004300080E090E00E942E08B601C8010E94830669
:100440001F910F91FF90EF90DF90CF9008956BE098
:1004500071E080E191E00E94F7016BE271E081E3DD
:1004600091E00E94F70108956F927F928F929F9280
:10047000AF92BF92CF92DF92EF92FF920F931F93B2
:10048000DF93CF93CDB7DEB760970FB6F894DEBF9A
:100490000FBECDBF6EE771E084E891E00E94F701E6
:1004A000AA24BB2458E0C52E49E0642E712C6C0EA2
:1004B0007D1E4E010894811C911C8A2D0E94A30868
:1004C000AA2797FDA095BA2FBC01CD010E942E0C42
:1004D0007B018C018A2D8F5F0E94A308AA2797FDBC
:1004E000A095BA2FBC01CD010E942E0C9B01AC013E
:1004F000F3018C2D11928A95E9F7E986FA860B872C
:100500001C872D873E874F87588BC801B7010E94F3
:10051000620B20E030E040E85FE30E94FD0A20919A
:1005200001053091020540910305509104050E9498
:10053000940D0E942D01F501F595E795EE0FFF1F33
:10054000EE0FFF1FE80DF91D608371838283938393
:10055000E2E0F0E0AE0EBF1EF4E0AF16B10409F029
:10056000ACCF6EE771E081EA91E00E94F701C4012F
:1005700060960FB6F894DEBF0FBECDBFCF91DF916E
:100580001F910F91FF90EF90DF90CF90BF90AF90B1
:100590009F908F907F906F9008950F931F930EE719
:1005A00011E0B80188EB91E00E94F7011092700011
:1005B000F894B80187ED91E00E94F7011F910F9127
:1005C00008950F931F930EE711E0B80181EF91E0BA
:1005D0000E94F70182E0809370007894B80180E176
:1005E00092E00E94F7011F910F9108950F931F93BE
:1005F0000EE711E0B8018AE292E00E94F701109242
:10060000B00087E08093B1008FEF8093B300109229
:100610007000B8018EE492E00E94F7011F910F91E3
:1006200008950F931F930EE711E0B8018CE692E056
:100630000E94F70110922A051092290510922C05AC
:1006400010922B0510922E0510922D050E94F60295
:10065000B80181E892E00E94F7011F910F9108957F
:10066000CF93DF936EE771E08EE892E00E94F7018E
:1006700080E090E09C01E90105C08FE295E00E94D6
:10068000290689938FE295E00E942C068823A9F71A
:100690006EE771E082EA92E00E94F70180E090E06C
:1006A000DF91CF910895DF92EF92FF920F931F9306
:1006B000CF93DF937C016EE771E081EB92E00E94C3
:1006C000F701D7010D900020E9F78D01015010408E
:1006D0000E191F09DD24C0E0D0E00BC0F701EC0FBC
:1006E000FD1F8081992787FD90950E94810AD80E71
:1006F0002196C017D10790F38D2DDF91CF911F91D7
:100700000F91FF90EF90DF9008959F92AF92BF926C
:10071000CF92DF92EF92FF920F931F93CF93DF93CD
:10072000982E5B018A016EE771E088ED92E00E94ED
:10073000F701C0E0D0E06801EE24D7FCE094FE2C85
:1007400011C061E0892D0E943309C701B6010E94E2
:100750002E0860E0892D0E943309C701B6010E946E
:100760002E082196CA15DB0564F3DF91CF911F9106
:100770000F91FF90EF90DF90CF90BF90AF909F9040
:1007800008954F925F926F927F928F929F92AF9255
:10079000BF92CF92DF92EF92FF920F931F933C0193
:1007A0007B014AEF50E062E070E08DE090E00E9453
:1007B0008503C3018E0D9F1D0E945303A82E7EE763
:1007C000472E71E0572EB20184EF92E00E94F701AC
:1007D0006FE2862E65E0962E2AE030E040E050E0A1
:1007E00060E070E0C4010E94A3070027F7FC0095B9
:1007F000102F2AE030E0B801A701C4010E94A3072E
:10080000B301C4010E9444062AE030E046E650E00D
:1008100060E070E0C4010E94A307BB24CC24B7FCB5
:10082000C094DC2C2AE030E0B601A501C4010E948E
:10083000A3072AE030E041E050E060E070E0C4014E
:100840000E94A307B20184E193E00E94F7011F9187
:100850000F91FF90EF90DF90CF90BF90AF909F905F
:100860008F907F906F905F904F9008950F931F939C
:100870008C016EE771E082E293E00E94F70169E685
:1008800070E0C8010E94C1031F910F9108956BE2AF
:1008900071E086E393E00E94F7016AE670E088E683
:1008A00090E00E94C1030895EF92FF920F931F936F
:1008B000CF93DF93EC010E9420087B018C016EE74F
:1008C00071E08AE593E00E94F7010E94200800276A
:1008D000F7FC0095102F6E197F09800B910B655F57
:1008E000714080409040B0F00E943003BE010E94F1
:1008F000AA0A009739F46EE771E08BE793E00E9453
:10090000F7010AC06EE771E080E993E00E94F70109
:1009100081E003C00E94470480E0DF91CF911F91E6
:100920000F91FF90EF900895AF92BF92CF92DF9218
:10093000EF92FF920F931F93DF93CF930F92CDB758
:10094000DEB70E9420087B018C016BE071E082EA37
:1009500093E00E94F7015701CC24B7FCC094DC2C33
:100960008E010F5F1F4F08C06BE071E08DEB93E0CD
:100970000E94F70181E01CC00E9420086A197B09CF
:100980008C099D09645F714080409040E8F489E9DA
:1009900090E00E94360462E370E080E090E00E9404
:1009A0002E081982C8010E945404882329F3DCCF41
:1009B0000F90CF91DF911F910F91FF90EF90DF90FB
:1009C000CF90BF90AF9008956BE271E08BEC93E015
:1009D0000E94F70180E0ECCF6EE771E088EE93E0D3
:1009E0000E94F70108956EE771E08CEF93E00E949A
:1009F000F70183B7817F866083BF83B7816083BF40
:100A000083B7816083BF889583B78E7F83BF83B7A9
:100A10008E7F83BF08950F931F93DF93CF93CDB73E
:100A2000DEB760970FB6F894DEBF0FBECDBF8C0166
:100A30006EE771E08AE194E00E94F701DE01119611
:100A4000E1E1F5E080E101900D928150E1F7FE01D6
:100A5000319620E030E0808191818017910741F04C
:100A60002F5F3F4F329628303105A9F72FEF3FEF28
:100A7000C90160960FB6F894DEBF0FBECDBFCF910F
:100A8000DF911F910F91089560E08DE00E9433097E
:100A90006AE070E080E090E00E942E086EE771E06E
:100AA0008FE394E00E94F70108950E9444056BE0F3
:100AB00071E08BE494E00E94F70108956F927F92B9
:100AC0008F929F92AF92BF92CF92DF92EF92FF925E
:100AD0000F931F93DF93CF9300D000D00F92CDB729
:100AE000DEB77C015B01FEE76F2EF1E07F2EB301E4
:100AF00088E594E00E94F7010027F7FC0095102F8D
:100B0000EFE28E2EE5E09E2EB801A701C4010E94FF
:100B10002F0660ED77E080E090E00E942E0865E708
:100B200074E0C4010E9444066AE070E080E090E056
:100B30000E942E08C5010E940B054AE050E060E0CB
:100B400070E00E94C40A9C01FE01319685E0DF013D
:100B50001D928A95E9F781E4898384E58A8382E49A
:100B60008B8384E48C83D9018C918D83BF01C40174
:100B70000E94830669E774E0C4010E9483066EE761
:100B800074E0C4010E948306CC24B7FCC094DC2C22
:100B9000B601A501C4010E942F06B30183E894E0C9
:100BA0000E94F7010F900F900F900F900F90CF9130
:100BB000DF911F910F91FF90EF90DF90CF90BF904A
:100BC000AF909F908F907F906F9008950F931F9399
:100BD0000BE011E0B8018BE994E00E94F70160E0BE
:100BE0007BE480E895E20E945E05B80187EB94E023
:100BF0000E94F7011F910F9108956EE771E08DEC4F
:100C000094E00E94F70161E08DE00E94150961E027
:100C10008DE00E9433096AE070E080E090E00E947D
:100C20002E0808956BE071E088EE94E00E94F701D1
:100C30000E94FD05089585E295E09093300580932C
:100C40002F050895862F0E94030A08950E943B0AEB
:100C500008950E941C0A08950E940B0A0895CB0172
:100C6000BA010E94CA090895DC01ED91FC9101903E
:100C7000F081E02D09950895DC01ED91FC91019042
:100C8000F081E02D099508950F931F93CF93DF9383
:100C90008C01EB0109C02196D801ED91FC910190E6
:100CA000F081E02DC801099568816623A1F7DF91E5
:100CB000CF911F910F9108950F931F938C01DC0129
:100CC000ED91FC910190F081E02D6DE00995D80146
:100CD000ED91FC910190F081E02D6AE0C801099549
:100CE0001F910F9108950F931F938C01DC01ED91DB
:100CF000FC910190F081E02D0995C8010E945C06ED
:100D00001F910F9108950F931F938C010E94440629
:100D1000C8010E945C061F910F9108950F931F93C5
:100D20008C01DC01ED91FC910190F081E02D0995A1
:100D3000C8010E945C061F910F9108952F923F9267
:100D40004F925F926F927F928F929F92AF92BF92DB
:100D5000CF92DF92EF92FF920F931F93DF93CF9387
:100D6000CDB7DEB7A0970FB6F894DEBF0FBECDBFEC
:100D70001C016A017B01411551056105710549F4AA
:100D8000DC01ED91FC910190F081E02D60E309958B
:100D900054C0882499245401422E55246624772473
:100DA00001E010E00C0F1D1F080D191DC701B60151
:100DB000A30192010E941A0EF80160830894811C1D
:100DC000911CA11CB11CC701B601A30192010E9494
:100DD0001A0EC901DA016C017D01C114D104E104CC
:100DE000F104F1F681E0E82EF12CEC0EFD1EE80C8A
:100DF000F91C3E010894611C711CD501C4010197C6
:100E0000A109B1096C01C818D90814C0F601EE0D8A
:100E1000FF1D60816A3010F4605D01C0695CD10122
:100E2000ED91FC910190F081E02DC10109950894AC
:100E3000E108F1086E147F0449F7A0960FB6F89404
:100E4000DEBF0FBECDBFCF91DF911F910F91FF90FD
:100E5000EF90DF90CF90BF90AF909F908F907F905A
:100E60006F905F904F903F902F9008952AE00E94DE
:100E70009E0608950F931F938C010E943607C801A8
:100E80000E945C061F910F910895AB0160E070E035
:100E90000E94360708950F931F938C01AB0160E009
:100EA00070E00E943607C8010E945C061F910F91F6
:100EB0000895EF92FF920F931F93CF93DF93EC016E
:100EC0007A018B0177FF0FC0E881F9810190F081F1
:100ED000E02D6DE2099510950095F094E094E11CE9
:100EE000F11C011D111D2AE0B801A701CE010E94CD
:100EF0009E06DF91CF911F910F91FF90EF90089583
:100F00000F931F938C010E945907C8010E945C0631
:100F10001F910F910895AB01662757FD6095762FBD
:100F20000E94590708950F931F938C01AB01662708
:100F300057FD6095762F0E945907C8010E945C06F4
:100F40001F910F910895DC012115310541F4ED91B8
:100F5000FC910190F081E02D642F099508952A30CD
:100F6000310519F40E94590708950E949E060895BC
:100F70000F931F938C010E94A307C8010E945C0677
:100F80001F910F9108951F920F920FB60F92112487
:100F90002F938F939F93AF93BF938091310590913F
:100FA0003205A0913305B09134058050904CAF4F7D
:100FB000BF4F8093310590933205A0933305B093D2
:100FC000340527C08091310590913205A0913305F9
:100FD000B091340580549F41A040B04080933105CA
:100FE00090933205A0933305B09334058091350575
:100FF00090913605A0913705B09138050196A11D55
:10100000B11D8093350590933605A0933705B093B5
:1010100038058091310590913205A0913305B0914A
:10102000340581549F41A040B04060F6BF91AF911C
:101030009F918F912F910F900FBE0F901F90189539
:101040008FB7F894209135053091360540913705DA
:10105000509138058FBFB901CA010895EF92FF92F0
:101060000F931F937B018C018FB7F8944091350546
:101070005091360560913705709138058FBF2FB7B5
:10108000F8948091350590913605A0913705B0917F
:1010900038052FBF841B950BA60BB70B8E159F052C
:1010A000A007B10760F31F910F91FF90EF90089593
:1010B000019759F0019749F0FC01EE0FFF1F31979E
:1010C0008FB7F8943197F1F78FBF0895789484B56E
:1010D000826084BD84B5816084BD85B5826085BD34
:1010E00085B5816085BDEEE6F0E08081816080831A
:1010F000E1E8F0E08081826080838081816080838C
:10110000E0E8F0E0808181608083E1EBF0E08081C5
:1011100084608083E0EBF0E0808181608083EAE797
:10112000F0E0808184608083808182608083808120
:10113000816080838081806880831092C1000895DF
:101140008093270508958F70909127059295990FA8
:10115000990F907C982B90937C0080917A0080640A
:1011600080937A0080917A0086FDFCCF20917800F0
:1011700040917900942F80E030E0282B392BC90171
:1011800008951F93CF93DF93182FEB0161E00E9426
:101190001509E12FF0E0EF5DFE4F8491833051F4AB
:1011A00080918000806880938000D0938900C093F4
:1011B000880037C0843051F4809180008062809331
:1011C0008000D0938B00C0938A002BC0813029F41B
:1011D00084B5806884BDC7BD24C0823029F484B53D
:1011E000806284BDC8BD1DC0863041F48091B000CE
:1011F00080688093B000C093B30013C0873041F47F
:101200008091B00080628093B000C093B40009C0A8
:10121000C038D10514F460E001C061E0812F0E9464
:101220003309DF91CF911F910895282F30E0C90134
:10123000835F9E4FFC01949127503F4FF9018491A9
:10124000882381F0E82FF0E0E651FF4FE491F0E0D1
:10125000662329F480819095892380830895808175
:10126000892B80830895482F50E0CA018F5D9E4FDF
:10127000FC012491CA01835F9E4FFC019491475069
:101280005F4FFA0134913323C1F1222331F123302E
:1012900021F4809180008F7705C0243031F4809153
:1012A00080008F7D8093800018C0213019F484B5B0
:1012B0008F7704C0223021F484B58F7D84BD0DC0AA
:1012C000263021F48091B0008F7705C0273029F4B3
:1012D0008091B0008F7D8093B000E32FF0E0E1516A
:1012E000FF4FE491F0E0662329F4808190958923F3
:1012F000808308958081892B80830895482F50E052
:10130000CA018F5D9E4FFC012491CA01835F9E4FED
:10131000FC01949147505F4FFA013491332319F443
:1013200020E030E035C0222331F1233021F48091D8
:1013300080008F7705C0243031F4809180008F7D4C
:101340008093800018C0213019F484B58F7704C0D1
:10135000223021F484B58F7D84BD0DC0263021F468
:101360008091B0008F7705C0273029F48091B000BC
:101370008F7D8093B000E32FF0E0EC50FF4FE491BD
:10138000F0E0808120E030E0892311F021E030E0BE
:10139000C9010895EF92FF920F931F937B018C0177
:1013A00022E030E040E050E00E943C0E205E3E45EE
:1013B000484F5F4FCA01B901A80197010E943C0E36
:1013C000C901DA010197A109B109292F3A2F4B2F41
:1013D000552747FD5A950196A11DB11D2093C500C3
:1013E00081508093C400E1ECF0E0808180618083D3
:1013F0008081886080838081806880831F910F91C5
:10140000FF90EF900895982F8091C00085FFFCCF4A
:101410009093C60008958091390590913A058058BF
:101420009F4F20913B0530913C05821B930B60E858
:1014300070E00E94070E089540913B0550913C05D5
:101440008091390590913A058417950719F42FEF8B
:101450003FEF0FC0FA01E35CFA4F2081CA01019609
:1014600060E870E00E94070E90933C0580933B0576
:1014700030E0C901089580913B0590913C0590931F
:101480003A058093390508951F920F920FB60F9277
:1014900011242F933F934F935F936F937F938F9379
:1014A0009F93AF93BF93EF93FF934091C600E0915A
:1014B0003905F0913A05CF01019660E870E00E948D
:1014C000070E9C0180913B0590913C052817390738
:1014D00039F0E35CFA4F408330933A0520933905A5
:1014E000FF91EF91BF91AF919F918F917F916F91FC
:1014F0005F914F913F912F910F900FBE0F901F90D2
:101500001895FC0188279927E89421912032E9F366
:10151000293010F02E30C8F32B3241F02D3239F43F
:10152000689404C00E94E50A820F911D2191205306
:101530002A30C0F31EF4909581959F4F0895FB01CA
:10154000DC010D900020E9F7119701900D92002029
:10155000E1F70895FB0151915523A9F0BF01DC018A
:101560004D9145174111E1F759F4CD01019000204B
:1015700049F04D9140154111C9F3FB014111EFCFE5
:1015800081E090E001970895FB019F01E8944230CB
:10159000C4F04532B4F44A3029F497FB1EF4909518
:1015A00081959F4F642F77270E94570E805D8A3365
:1015B0000CF0895D8193CB010097A1F716F45DE2F1
:1015C00051931082C9010C94ED0A7AE0979F902DF7
:1015D000879F802D910D11240895DC01FC01672F58
:1015E00071917723E1F7329704C07C916D937083FA
:1015F0006291AE17BF07C8F308955058BB27AA27BA
:101600000ED0A3C194D130F099D120F031F49F3F96
:1016100011F41EF464C10EF4E095E7FB5AC1E92F02
:10162000A5D180F3BA17620773078407950718F0EE
:1016300071F49EF5BDC10EF4E0950B2EBA2FA02DCE
:101640000B01B90190010C01CA01A0011124FF276F
:10165000591B99F0593F50F4503E68F11A16F0406A
:10166000A22F232F342F4427585FF3CF4695379569
:101670002795A795F0405395C9F77EF41F16BA0B2E
:10168000620B730B840BBAF09150A1F0FF0FBB1FDC
:10169000661F771F881FC2F70EC0BA0F621F731F25
:1016A000841F48F4879577956795B795F7959E3F82
:1016B00008F0B3CF9395880F08F09927EE0F979510
:1016C000879508950CD041C139D140F030D130F028
:1016D00021F45F3F19F0FDC051116BC100C146D12B
:1016E00098F39923C9F35523B1F3951B550BBB27E9
:1016F000AA2762177307840738F09F5F5F4F220F96
:10170000331F441FAA1FA9F333D00E2E3AF0E0E88E
:1017100030D091505040E695001CCAF729D0FE2FDA
:1017200027D0660F771F881FBB1F2617370748076C
:10173000AB07B0E809F0BB0B802DBF01FF27935822
:101740005F4F2AF09E3F510568F0C3C032C15F3F32
:10175000ECF3983EDCF3869577956795B795F7950A
:101760009F5FC9F7880F911D9695879597F9089502
:10177000E1E0660F771F881FBB1F6217730784079E
:10178000BA0720F0621B730B840BBA0BEE1F88F7AD
:10179000E095089519F40EF09CC00AC1A0C0EED0E7
:1017A000C8F39638C0F707F80F92E8942BE33AEAAB
:1017B00048EB5FE7C7D10F920F920F924DB75EB71C
:1017C0000F927FD1E8E6F0E08DD04F915F91EF91DD
:1017D000FF91E595EE1FFF1F49F0FE57E068442793
:1017E000EE0F441FFA95E1F74195550BF1D00F909C
:1017F00007FEE5C0089504D06894B111DAC00895D9
:10180000BDD088F09F5790F0B92F9927B751A0F01D
:10181000D1F0660F771F881F991F1AF0BA95C9F784
:1018200012C0B13081F0C4D0B1E00895C1C0672FBB
:10183000782F8827B85F39F0B93FCCF38695779534
:101840006795B395D9F73EF490958095709561951D
:101850007F4F8F4F9F4F0895E89409C097FB3EF448
:1018600090958095709561957F4F8F4F9F4F9923ED
:10187000A9F0F92F96E9BB279395F695879577956B
:101880006795B795F111F8CFFAF4BB0F11F460FF2B
:101890001BC06F5F7F4F8F4F9F4F16C0882311F083
:1018A00096E911C0772321F09EE8872F762F05C097
:1018B000662371F096E8862F70E060E02AF09A9532
:1018C000660F771F881FDAF7880F9695879597F927
:1018D000089597F99F6780E870E060E008959FEFB2
:1018E00080EC0895DF93CF931F930F93FF92EF92B5
:1018F000DF927B018C01689405C0DA2EEF0120D1C4
:10190000FE01E894A5912591359145915591AEF34D
:10191000EF0185DEFE019701A801DA9479F7DF90E7
:10192000EF90FF900F911F91CF91DF9108950024C8
:101930000A941616170618060906089500240A9434
:1019400012161306140605060895092E0394000CBA
:1019500011F4882352F0BB0F40F4BF2B11F460FF49
:1019600004C06F5F7F4F8F4F9F4F089557FD905872
:10197000440F551F59F05F3F71F04795880F97FB53
:10198000991F61F09F3F79F087950895121613060D
:101990001406551FF2CF4695F1DF08C0161617063C
:1019A0001806991FF1CF8695710561050894089571
:1019B000E894BB2766277727CB0197F908959B0109
:1019C000AC0160E070E080E89FE37CCE82CF0FC185
:1019D000D5DFE8F39923D9F3940F511DBBF3915050
:1019E000504094F059F0882332F0660F771F881F1B
:1019F00091505040C1F79E3F510544F7880F911D0B
:101A00009695879597F908955F3FACF0983E9CF0C6
:101A1000BB27869577956795B79508F4B160939540
:101A2000C1F7BB0F58F711F460FFE8CF6F5F7F4F2E
:101A30008F4F9F4FE3CFBDCF0EF0D9C050CF6894EA
:101A400048CF9CDFC8F39923D1F3C6F3DF93CF933C
:101A50001F930F93FF92C92FDD2788232AF0219728
:101A6000660F771F881FDAF720E030E040E85FEB71
:101A70009FE3883920F0803E30F021968F77BEDDDD
:101A8000E0E9F0E003C0BADDEDEBF0E02BDF8B0125
:101A9000BE01EC01FB2E6F5771097595771F880BFE
:101AA000990BDCDE28E132E741E35FE349D0AF2D5B
:101AB0009801AE01FF900F911F91CF91DF91AFDDA3
:101AC00044CFFA01DC01AA0FBB1F9B01AC01BF5739
:101AD00028F422273327442750781FC0B75188F4B1
:101AE000AB2F0024469537952795011CA395D2F37B
:101AF000002069F0220F331F441FB395DAF30DD095
:101B00007CCD61307105A0E88A07B94630F49B01AD
:101B1000AC016627772788279078309621F02083BC
:101B200031834283538308950BD00FCF00DF28F019
:101B300005DF18F0952309F0CCCED1CE112439CF92
:101B400015DFA0F3959FD1F3950F50E0551F629FCD
:101B5000F001729FBB27F00DB11D639FAA27F00D06
:101B6000B11DAA1F649F6627B00DA11D661F829F2D
:101B70002227B00DA11D621F739FB00DA11D621F12
:101B8000839FA00D611D221F749F3327A00D611D2F
:101B9000231F849F600D211D822F762F6A2F112411
:101BA0009F5750408AF0E1F088234AF0EE0FFF1F64
:101BB000BB1F661F771F881F91505040A9F79E3F9B
:101BC000510570F086CEF5CE5F3FECF3983EDCF326
:101BD000869577956795B795F795E7959F5FC1F7D8
:101BE000FE2B880F911D9695879597F908959F3F35
:101BF00049F0915028F4869577956795B7959F5F42
:101C000080389F4F880F9695879597F9089597FB91
:101C1000092E07260AD077FD04D049D006D000202F
:101C20001AF4709561957F4F0895F6F79095819518
:101C30009F4F0895A1E21A2EAA1BBB1BFD010DC0E8
:101C4000AA1FBB1FEE1FFF1FA217B307E407F5076C
:101C500020F0A21BB30BE40BF50B661F771F881F48
:101C6000991F1A9469F760957095809590959B01DE
:101C7000AC01BD01CF01089597FB092E05260ED0BA
:101C800057FD04D0D7DF0AD0001C38F4509540959A
:101C9000309521953F4F4F4F5F4F0895F6F7909540
:101CA0008095709561957F4F8F4F9F4F0895AA1B28
:101CB000BB1B51E107C0AA1FBB1FA617B70710F037
:101CC000A61BB70B881F991F5A95A9F78095909569
:101CD000BC01CD010895EE0FFF1F0590F491E02D9A
:061CE0000994F894FFCF07
:101CE600004D4F4F002E003A202000494E464F002F
:101CF60042726F616463617374696E6720726561B5
:101D060064696E67732E202E202E004552524F5264
:101D16000052656164696E677320616E6420756E3A
:101D260069747320766563746F727320646966667E
:101D36006572656E74206C656E677468733B20749B
:101D4600686579206E65656420746F20626520740D
:101D560068652073616D652073697A652E00444558
:101D6600425547005570646174696E672073656EED
:101D7600736F722076616C756573202E202E202E6F
:101D86000053656E736F722076616C75657320758E
:101D96007064617465642E0053746F7070696E6749
:101DA60020696E746572727570742074696D6572DF
:101DB600322E202E202E00496E7465727275707454
:101DC6002074696D6572322073746F707065642E4D
:101DD600005374617274696E6720696E74657272FD
:101DE6007570742074696D6572322E202E202E0057
:101DF600496E746572727570742074696D6572329D
:101E060020737461727465642E00496E6974696129
:101E16006C697A696E6720696E7465727275707422
:101E26002074696D657232202E202E202E00496E98
:101E3600746572727570742074696D65723220698A
:101E46006E697469616C697A65642E0052657365A2
:101E56007474696E6720636C6F636B2E202E202E60
:101E660000436C6F636B2072657365742E00526558
:101E760063656976696E6720646174612E202E2021
:101E86002E00446174612072656365697665642E0F
:101E96000043616C63756C6174696E672063686585
:101EA600636B73756D20666F72206D657373616702
:101EB60065202E202E202E00426C696E6B696E679F
:101EC60020696E64696361746F72204C45442E20EC
:101ED6002E202E00426567696E6E696E6720746FEC
:101EE6002073656E64206D657373616765202E20AF
:101EF6002E202E0053656E74206D657373616765C1
:101F06002E004D616B696E6720726571756573741D
:101F1600202E202E2000436F6D6D756E69636174EF
:101F2600696F6E207769746820646F6E676C6520D0
:101F360074696D6564206F75740057616974696EA4
:101F46006720746F2072656365697665206D6573B9
:101F560073616765202E202E202E004E6F206D6542
:101F660073736167652072656365697665642E00C3
:101F76004D6573736167652072656365697665642F
:101F86002E00536561726368696E6720666F722002
:101F9600646F6E676C65202E202E202E00446F6EB7
:101FA600676C6520666F756E642E00446F6E676C95
:101FB60065206E6F7420666F756E642C2074696D73
:101FC6006564206F75742E0057616B696E672061BA
:101FD600726475696E6F2E202E202E0050757474F3
:101FE600696E672041726475696E6F20746F207325
:101FF6006C6565702E202E202E0043616C63756C17
:102006006174696E6720626175642072617465200F
:10201600706172616D657465722E202E202E0058D7
:10202600426565206177616B652E00576F6B652091
:10203600584265652E2E2E004368616E67696E678D
:102046002058426565206261756420726174652E50
:10205600202E202E002B2B2B00415457520041548A
:10206600434E005842656520626175642072617452
:1020760065206368616E6765642E00436F6E6669EE
:10208600677572696E6720646174616C6F676765F6
:10209600722E202E202E00446174616C6F67676576
:1020A6007220636F6E666967757265640050757439
:1020B60074696E67205842656520746F20736C657D
:1020C60065702E202E202E0050757474696E672060
:1020D6005842656520746F20736C6565702E2E2ED0
:1020E6000000007A4400E0764500401C460000955A
:1020F60043B0046009C0128025004B009600E10041
:08210600C200000000220601E6
:00000001FF
